:020000040000fa
:080000000001040000000000f3
:020000040000fa
:100200004f8420000e9f20000e0188000000000097
:100210000c000700003e2000010020001100070034
:10022000000020000000e000020032000000020098
:100230000000000032020200000000000040da006e
:100240000000fe004440a900000020000000e00083
:100250000300320000002000a00188004440a800f4
:100260000000060091018800800078000000eb008b
:1002700015003700e280400032a0b4009101ba00be
:10028000e280400032a0b4009102ba00e280400057
:1002900032a0b4000002eb00472bde00f507b200ed
:1002a000602ce10004003a000059eb008301e900f2
:1002b000fdff3e00040037006128e100010032002c
:1002c0000082eb00040007001101ba000200e00008
:1002d000e8ff3a00000006003159ba008301e90046
:1002e0000c0032002159ba008301e90008003200f5
:1002f0000400e00003003a00e280400032a0b400b5
:10030000f5ff370011d9ba008301e900faff3a007e
:100310008100e800e180400032a0b4000000060047
:100320000040da000000fe00839f68000100e0004a
:1003300002003d0060001000e08018000300e000b3
:1003400002003d0060011100e08119000500070076
:100350004f00e00002003b0060001000e080180049
:10036000000006006022b800060220000000d00055
:100370008180d2000482d2008582d2000000a000d9
:100380000202520083825a0003003100020242003e
:1003900083824a000000a1000603e900f3ff3a004f
:0403a0000000060053
:020000040000fa
:1000080090010000900100009001000090010000a4
:100018009001000090010000900100009001000094
:100028009001000090010000900100009001000084
:100038009001000090010000900100009001000074
:1000480090010000900100009001000020020000d3
:10005800900100009001000090010000d201000012
:100068009001000090010000900100009001000044
:100078009001000090010000900100009001000034
:100088009001000090010000900100009001000024
:100098009001000090010000900100009001000014
:1000a8009001000090010000900100009001000004
:1000b80090010000900100009001000090010000f4
:1000c80090010000900100009001000090010000e4
:1000d80090010000900100009001000090010000d4
:1000e80090010000900100009001000090010000c4
:0800f8009001000090010000de
:020000040000fa
:1001080090010000900100009001000090010000a3
:100118009001000090010000900100009001000093
:100128009001000090010000900100009001000083
:100138009001000090010000900100009001000073
:1001480090010000900100009001000020020000d2
:10015800900100009001000090010000d201000011
:100168009001000090010000900100009001000043
:100178009001000090010000900100009001000033
:100188009001000090010000900100009001000023
:100198009001000090010000900100009001000013
:1001a8009001000090010000900100009001000003
:1001b80090010000900100009001000090010000f3
:1001c80090010000900100009001000090010000e3
:1001d80090010000900100009001000090010000d3
:1001e80090010000900100009001000090010000c3
:0801f8009001000090010000dd
:020000040000fa
:1003a400809fbe000000fa0085e0a900411680008d
:1003b400800320000080600090418800904180000c
:1003c4004300de009041880090418000800040009e
:1003d400008220000080400010007800a00e8800f9
:1003e40090418000e10f500011003a0038c8bf006e
:1003f4000040e80038e8b70038c8bf00e64f5000b6
:100404000b003a0050088000a04188000000eb0077
:1004140050088800b1418000a04180000080400065
:100424000000d100b041880010c0b30038e8b70024
:100434000080fa004f00be0000400600801f7800d4
:100444000000fa008560a90000148000d0418800f3
:100454003028a8000080fa004f0078000040060011
:100464000000fa000000eb00e016880000fc2f00fa
:10047400c0168800000e200000068800000e200030
:100484002006880085e0a9008de0a800510007003f
:1004940040000700640007000000eb00b041880042
:1004a40000003700cfc2bf000044b2000004e000e7
:1004b400fcff3a0002003700a0002000ad00070056
:1004c400cfc2bf000044b2000004e000faff3200d3
:1004d4004116800080032000008060009041880065
:1004e400904180004300de009041880090418000ec
:1004f400800040000082200000804000100078004e
:10050400a00e880070772000400e88003008a800f4
:1005140013e1a80010c0b30038e8b700400620007b
:100524009400070016003700cfc2bf000044b20099
:100534000004e0000c003a0000702000400e880027
:100544000000eb00a00e88003008a900020037006c
:10055400a000200087000700cfc2bf000044b20003
:100564000004e000faff3200804180006200600075
:100574000000e00002003200340007003028a90027
:1005840080418000610060000000e000e6ff3a0066
:10059400c4ff37000000fa0080ff2f0040158800d8
:1005a4004006200000158800002020001015880057
:1005b4002000200030158800000820002015880045
:1005c4008560a9008d60a800a1e2a8000080fa005f
:1005d400000006000000fa00f00f2000200e880042
:1005e40000702000400e88000000eb00a00e880080
:1005f40040062000b00e880040062000c00e88008f
:1006040040062000d00e8800200e8000300e8800a6
:1006140000f02000500e880000002800000e880022
:100624000080fa00000006000000fa000003200029
:10063400900888000000eb00500888000080eb0060
:10064400700888000080fa00000006000000fa002c
:10065400889fbe00b04180006101b80060342c0066
:10066400310220002fff0700e0418800d0418000c4
:100674004200dd00d0418800d1418000e04180008b
:1006840000805000f041880011428000f041800059
:100694000080400010428800f04180006102b900ef
:1006a40084007800e02e2000000cb8006020b9001f
:1006b4000901780000014100e02e200000a8b900e3
:1006c4000001410082047800104280006103b900f7
:1006d4008600780040012000000ab8006030b900ac
:1006e40005017800000141007438b900000141009f
:1006f400820278000800420089804a004088de00b7
:10070400cf80de0000428800b10e800000428000ed
:1007140000804000b00e8800b10e8000100320005d
:10072400808f500004003e0020032000b00e88009b
:100734000000eb0010428800b10e80000020200071
:10074400808f50000400360000202000b00e880086
:100754000000eb0010428800b00e8000c00e88003c
:10076400b00e8000d00e88004f04be000080fa0056
:10077400000006000400fa00100798000700370084
:100784000000eb00000f7800010037001e0fe800a6
:10079400703e20009e0f1000fcff36001e009000eb
:1007a4000000e900100798001e009000e10f4000cf
:0c07b400f3ff3a000080fa00000006008d
:020000040000fa
:1007c00000080000300000000200000000001000df
:1007d00002042000040201000810080001200000ab
:1007e00000000000100204002004020001081000b4
:1007f0000801200000000000000120001008010096
:10080000080402000420100002000000300800006c
:0c081000140000000000000000000000c8
:00000001FF
